S01600006D616B696E675F736F756E645F312E737265637F
S11300000C943E3A0C94503A0C94503A0C94503A56
S11300100C94503A0C94503A0C94503A0C94503A34
S11300200C94503A0C94503A0C94503A0C94503A24
S11300300C94503A0C94503A0C94503A0C94503A14
S11300400C94B63A0C94503A0C94503A0C94503A9E
S11300500C94503A0C94503A0C94503A0C94503AF4
S11300600C94503A0C94503A7F7F7F7F7F7F7F7F40
S11300707F8080808080808080808080807F7F807F
S113008080808080808080808080807F7F7F7F7F71
S11300907F7F7F7F807F7F80808080808080808062
S11300A0808080808080807F7F7F7F7F7F7F7F8054
S11300B0808080808080807F808080808080807F3E
S11300C0808080807F7F7F7F7F7F807F8080808033
S11300D08080807F7F7F7F807F7F7F7F8080808024
S11300E080808080808080807F7F7F7F7F7F7F7F14
S11300F07F7F7F7F7F7F8080808080808080808002
S1130100808080807F7F7F7F7F7F7F7F7F7F7F7FF7
S113011080807F7F7F7F7F7F7F7F7F7F7F7F8080E7
S113012080808080808080807F7F7F7F7F7F7F7FD3
S11301307F7F7F7F7F7F7F7F8080808080808080C3
S113014080807F807F7F7F7F7F7F808080808080B2
S113015080808080807F7F7F7F7F7F7F7F7F7F80A5
S11301608080808080808080807F7F7F7F7F7F7F92
S11301708080808080808080807F7F7F7F7F7F7F82
S11301807F80808080808080808080807F8080806D
S1130190807F7F7F7F8080808080807F7F7F7F7F64
S11301A07F7F7F7F7F7F8080808080808080807F52
S11301B07F7F7F7F7F7F7F80808080808080808042
S11301C0807F7F7F7F7F7F7F7F7F7F7F7F7F808038
S11301D08080808080807F7F7F7F7F7F7F7F7F7F25
S11301E07F7F8080808080808080808080807F7F0F
S11301F07F7F80808080807F80807F7F7F7F7F7F04
S11302007F7F7F7F7F7F7F7F7F7F7F8080808080F5
S113021080808080808080808080807F7F7F7F7FDF
S11302207F7F7F7F7F7F8080808080808080807FD1
S11302307F7F7F7F7F80808080808080807F807FC1
S11302407F7F7F7F7F7F7F7F7F7F808080808080B4
S1130250808080807F7F7F7F7F8080808080807FA0
S113026080807F7F7F7F7F7F7F7F7F7F7F7F7F8097
S113027080808080808080808080807F7F7F7F7F7F
S11302807F7E7E7F80808080807F80828281807E6E
S11302907E7F80828384817F7E7D7C7D7F807F7E64
S11302A07D7C7C7E7F81807F7E7D7E808282828257
S11302B0807F808283838382807D7B7C7E80807F3D
S11302C07D7B7A7A7D808383817F7E7D7E8083843B
S11302D0848280807F81828483817F7C7B7B7C7E1F
S11302E07E7E7D7C7B7D7F8181807F7E7D7E818320
S11302F084858382858482828080807E80808280DF
S11303007D7C7D7C7A7C7E7F7F7F808183858584F4
S113031081807F7E7F807D7A7A7A7B7F8182807DF7
S1130320787676787B7F82838281808284868887D0
S11303308683818182838382817F7D7C7D7D7D7CB8
S11303407B7A79787A7C7F808181808082838687BA
S1130350878583818182818080807E7C7C7B797AA1
S11303607B7D7E7C7B7A797A7C8083848585858499
S11303708485858481807D7C7D818482817F7B7B73
S11303807F7F7E7D7978787A7F828683807E7C7990
S1130390787D80888683817D7E818687807B797A5B
S11303A080898E908E837976797A808788847D7926
S11303B0777A7E82837E7A7674767C8081807E7B77
S11303C07C818486888884807F7F81828485827F03
S11303D07B7B7C7E8182807B7876777A7D80807E51
S11303E07A7A7C7F83878A898584858382828182E5
S11303F08081818385827F7C79747575797D7D7F29
S11304007F818588898480807E7E82837F7D7D7CD8
S11304107E8184848483847F7B79777E81858786CB
S113042087827F81817C787C7F7F81807D777675F0
S11304307375787B7C7F807F7C7B7E8083868783DB
S113044080818384878E908D8E898B897D7A717764
S1130450797981827F7677797777787E7D7B7F7FE4
S11304608181898C8B8B84828184868685827E7C43
S11304707D7F7E7B756D696C727B8183837C7774F1
S1130480788085888A8D89858C91928E89847F7BFA
S11304907979797C7C7A7E8485837F7A76736F71AF
S11304A07A7D7E80848381807E7F7E7D7B7A7E825E
S11304B083838585858082858589888A8B888481E4
S11304C0807E7F7F818584817C787776787A7A7E56
S11304D07F757379777B80818380828684888C841E
S11304E07D7A74767E8590938D867A76737B7D7E15
S11304F0827D76727A7F808B8E8A84777673778119
S1130500808380776C6F7C838688888278787A820F
S11305108487887F7F7A7C838F94918A7C777478B0
S11305207F86877F786E6C757B81898D87807F81DC
S113053084868A888884817E80919189867E706F82
S11305406D787F7C776B6B71767D88898480787910
S113055080848D8E8E8987847C868A80787B7D7D5D
S11305607E7C777C7B6D707F837B808286857F83B6
S1130570878C82818B8378737572737A7C8282858F
S1130580817D807E807A7E7F7B838D979B9E989AE7
S113059095817D75787B7C82817A6E6D73727476B9
S11305A0756F686B70767C868A8B8F8C8E8E939138
S11305B08A85817D7E8689898274675D5F646E75B4
S11305C0757875706F7881869094999886878A8DEE
S11305D0A1A7A0A19278716A6E76797D7D7A716601
S11305E062636A6F717A83888A929291928F8C8205
S11305F0868C929795917F6E61666C76817B7B6C1D
S11306005F626B777F89877F766F7B8B9EA6A3A2C1
S1130610988B868D93948A80786E655D6775767500
S113062074706966677380807A7270737B8998A727
S1130630A59A8E86919391918F856D6B76818B8D22
S113064089796E646372808E91887F7C80818C96B8
S1130650958E82746D6D6A707C8180807C706E75FD
S11306607E827C746C6C7A808A9A907A7478777DB6
S1130670848A8F837A757982878F8F877B726E7C69
S1130680939A9F9D90857271747B8D8B8A887E71FD
S1130690717C868B877E756B6572828B8C7F6B64B5
S11306A0656E7F9BA0908577747282888B93847B20
S11306B0787C828592958F837C80777F8E8E817003
S11306C0625A61697A8C917F6B63646B7B8D9394BE
S11306D0806C6E737E8F97918473626A7E8B9AA20C
S11306E09D94877B7E8789877E7B766D72788A95D9
S11306F08E8370645E6776868F857B707079879849
S11307009FA09380716E788E9DA498836A5D6374B4
S11307108F9A91837464646E7A8088837671747E10
S11307208BA0A79E8A756C708090979179675C57AF
S11307306573858A8480767886949392927F778293
S11307408EA0B1B9B19F8D7569636772797C6F654D
S1130750625E5F63676D6256525965708CA2A19B9D
S113076098888596999BA09D90807C7A80868B83BF
S1130770797867676E7277716C6061687486999F27
S11307809692837D8EA0A4A5A695857B767D83888D
S11307908A8A8889827E87887C6B645E5E71808D9C
S11307A08D7869585C667487898B7E6E66677880FD
S11307B095A49C98908F8C9FAEA4998D86766B811E
S11307C08B7B7664595B626E6F8276514A434653E3
S11307D0688593A097949DA9B6AFAEA495807D8BB0
S11307E08F969B8F898477766E696C5F50494E59DA
S11307F068878E939D918A919B979393928E87831A
S11308007E807D798490897D756156565C5E6072C8
S11308106F6464697387979DA5A698888C95A0A832
S11308209E96827374809395938875625866757EDC
S113083086856D555961728E979A89736864768539
S11308408D8E8C82797B82939591887C7F89939A13
S1130850A7A8948176747F898E9A97857365605A68
S113086066695D6560534E58666C77848C8E8987A3
S11308708A848484797C848894A7AD9F8D7A6D6BF7
S11308806F727F8A80787981959D97988F817A7924
S11308908694A4A79D958B786E726E797E78737416
S11308A06D6465685D55535460758C979E9E978AF8
S11308B0868A929FA09998887D7F7D7F79756864E8
S11308C05F5A5A5B6D757B7D7F847D838F9EADB34C
S11308D0B0AAA8A29CA4A3988D745E5654575B5BDF
S11308E05B5247414B6170828591998C93A7B6BF47
S11308F0BEBEB3AFAB9A969189776B685D51494997
S11309004845474246595F6E768490817D7F808951
S113091098B0BAC2C6BCB0A19B8B7D7A7269635E83
S1130920575861696D6D727067686E7B848C9191A4
S11309309A9DA2A9B2AF9C907E72737981827E74D3
S11309406A626365615E5A5655596C848F9DACAC7E
S1130950A79F9EA2A8B2ADA7A4A2928382827B661F
S11309605D5A4D3E39424F5D63727D777981888A45
S113097089837F8699ABB8C4BDA992776A68646796
S11309806B6C6C6D6B6F7C81746D6E676C707C923C
S11309909D9C9B9A9DA6A99D91897C726E7A847A6E
S11309A06C63544842495A6E808E95969C96999CE5
S11309B0958D8D9593939FA9AAA29481776C62617A
S11309C06E786E636060575969787C7E7B7371734F
S11309D079848E898079757D8F99A8B3ACA496911A
S11309E08984827B7A7971717C868E8E877E787811
S11309F079787E7D79747073707276808486888C41
S1130A00938C817F78736F717E82837D7D818383F4
S1130A107C756965626175898C8E908E9190948FD6
S1130A20867C6A62647482919C8F877D747E8794CD
S1130A30948B7F7776777B8699979696928B837F34
S1130A4077726A5B555B636B777B7A756D6C6E70DE
S1130A5071797E7B787B7B7D8D9AA7A8A09E9D9ED5
S1130A609BA19685745C5F65676C6E716C727F8FF9
S1130A709E9E9D979680747A7B8E939B9F988E7C86
S1130A8074696A6A64656F79797E7B7875767B7838
S1130A908C9694968D8676727883939598918D84AE
S1130AA07676756D6060676B6B6F737F838184800E
S1130AB085847A7D847D69656C636774818188929D
S1130AC08E8B8D908E88808083898E9EAAB0AEA0F6
S1130AD08E80746A6C6F757B80786B635555626E1B
S1130AE082817E8075788298A29E9BA2A5A4B2B6CC
S1130AF0AE9C7C5E515463798C876F554247566532
S1130B007B887F76798292A7B3BBB6A4959096959D
S1130B10918C7E6B61555965615A50443E3E4D5DE2
S1130B206B736F72787F88A0AFB3B8B4B3ACA5A968
S1130B30ADACA3958B8178726F746E625C5D595D08
S1130B406B7381837E79787A7E8798A5A3A4A6A8FF
S1130B50A298958A7E75706A61605B5D606063636C
S1130B6069646565686C6F787B8A949CA6ABB5B73D
S1130B70B3ADA3A093888177726E75839099998B96
S1130B807A6D5A5350505A68737C80878982868F55
S1130B908A7D71656364656D778286889395918D8E
S1130BA08F938B7F717B7C80868086786E67616D86
S1130BB0686C79848B838D93959C9C988B868484B4
S1130BC096B1BEB8AA977B5C5460707678756B69F1
S1130BD06164747A6C5E565B607599AAB1A79E8D48
S1130BE0827F89A1A09790817B706C757A715C5823
S1130BF04D4D545E6F787B747578828FA4BCC8C6E3
S1130C00BAB19E93898C8F7C6E65646772787B77AA
S1130C1063574B4A53616E747A716F687791ACC6AF
S1130C20BDBBA99A8E878F8D8D868785837F7877C4
S1130C307273665D6A6E716E73716F665D626F86E4
S1130C40878A838381747A8A948E94979DA59A98CF
S1130C5097917E736F6E79798586817B7775798BB1
S1130C60918D817E74676B707C888F96959991962F
S1130C709993896854535D5D6A7B78767E848A96FD
S1130C8091817C75787E7F949A998D89877E7E7F09
S1130C9088878D7B716C6365677678746A5F666D2F
S1130CA0777D8785777B7B8CA3A8A0978872696DF5
S1130CB07F93A0A39C908A8C8B92A29C8D857D733C
S1130CC072706D69666055565E6D706E6A605A57D3
S1130CD05B677A847E878D93A1A3A7A5A7A6A5A405
S1130CE0B2BAB5AF957D6D5F5653585E6061636A65
S1130CF06E727373767C83848E8A8B9A9FB0B9B537
S1130D00ACA08978746B71786C63636265727B855F
S1130D10866D61646B6E787F807B767B81908D8934
S1130D20857B706862636F7C8C93918A7D7D8B9DDB
S1130D30A49A99938E90909CA19F9F8F86806C70AB
S1130D407E8B8C83735C504C5A7189938F8D8B8608
S1130D50858581756459565B7088969A8E7D675E29
S1130D605D66848783877F808A97A0968F91868229
S1130D7089949186806E635B5D5E636A6263606082
S1130D80667485878E9189878C919AAABBBBB9B901
S1130D90B7B3AB9F8C7F6C53413D414B4F50525383
S1130DA05F6A71879397948B9097A7AFB1BBB8AFE5
S1130DB0A9968A8A84756A5A48423D4A575C5D56A8
S1130DC05D6166819CB2BEC5C2B4ADADADB9C5AD01
S1130DD098856F635D65716A635A504D4F4E5161DA
S1130DE0656C74828997A7B0B4AEAE9F9089827700
S1130DF06D625D5857606D78756C64585862697F90
S1130E008FA2ABA4A6A4A4A2A5A39C988C84766B61
S1130E106D656C7477716158515B6275848B8F89D1
S1130E208B8C979D9C9B9488808DA0A1A692694CE5
S1130E3040384972808D908D837E8488929EA588E7
S1130E407D80858B97A0A09A857671776F676154B2
S1130E504435333C4962778D9DA2AFB3BFBCB5A77F
S1130E609D9581767B88939E9F9F988B6E605E5F35
S1130E7057595C5055586372858E8B8A989A96960A
S1130E809E98867972787881878C887A665D4F52CD
S1130E906A7977737A6C718198B1C1C7B5A4948269
S1130EA0747B81848272675D626C716C5E5A52508D
S1130EB0626D858C8A91949AAAC7C5CDD3BFA38E3F
S1130EC074636A7072767B6F5849454652555B5A13
S1130ED0535C5E5F758F919F9A98A2B0B7BAC8BEF3
S1130EE0B0A595756C5F554B424B526167677B8F1C
S1130EF092878382747C88A2B4BEB8A2A5A6AAB540
S1130F00C7B29082684A4E4D444B4C50505D6C7A47
S1130F10817B706D6667748FA8A89C9399969DAC2D
S1130F20B3B5AE9980716C615C6563697169737BFB
S1130F30757678766966656C7473736E6E7A7A8486
S1130F4099A9A18B827A6C647686A2ABABA99D9099
S1130F5078767075757176696D797A727782868B19
S1130F6092969AAFB2AAA291897F747172796F5ED8
S1130F70535A6C776E70785D54556A767F888E9577
S1130F808F9C9CA2ABA99B90927757646F707C7ED8
S1130F9078797D6A667C867F85858687818487A348
S1130FA0B3ACAFA79D908B867469553D32404859C8
S1130FB06C6A665E64636E93A7B0B7AF95878D99CC
S1130FC0A3A7A598897C707181857F786F645D5D26
S1130FD06272796F676671848D99A6A895888586F3
S1130FE08C8D87867F625E6470808485837872725C
S1130FF080948F887858464757849BABB5ABA7A29B
S11310009D8F939494918F9AA3A58F897F746C6319
S11310106E736C615C59544B465158595D5C7884CD
S113102087999CA0A29B9DAAA8A79C9E968A92940D
S11310308D74646A7B7E81858281705B6A808E9107
S11310408D8B8C83727386998F88816C6560615FE8
S11310505D655B544F5453606F7881838B94A1AD6D
S1131060B7C3CCB29F9286877B757A8276636471AC
S1131070726775857F7C767E8FA2A6A3ABAC8B75D9
S11310808A93979895866F4D343140504E5A514902
S1131090515B7E9BB2BDABA5A09BA8B4B2ADA0959D
S11310A0928280898B8E856C5A524F4A4B54565784
S11310B0494B5D8699A5B8A8A087818F9AA7AAA352
S11310C09184777D837A7D7A6C57474751677A8715
S11310D0909C928182807F84848690A4ADA6B6AFD2
S11310E09F968C8584837676747B7469766B6B6D3E
S11310F0717B76756F726F6963697061676E6B710E
S1131100766B67797775848D7F7D8B949F9B8D86B5
S1131110878A9295A1BAB39A9C9D948F8A8B8D816C
S11311207A88928C7E80836F6A625360554F5F60C9
S1131130523837384353688498B0A7ADB9B6A587F9
S113114085857D7D8EA7A89582828E928E8F9F8EB7
S11311506F5B5659638AACC0BBA87D6D7E7774857E
S1131160978C817D7B777565504F4A3A304E646B1E
S1131170716D6D777F7E91B0AF9F8F989B96B2BC57
S1131180B29F86625D7484949FA896766767708127
S113119087848D907B7C848379727B6E6167767F94
S11311A0857D6A62563C3251686C79949A90939228
S11311B0909B948180898A8FB6B9B5B0A39D969986
S11311C09C978B866859595C686A72766F6C615F0C
S11311D07A807C746E6B66606D746E6759606C7730
S11311E089979E9F8C8D9788817A737F837B819466
S11311F0A0999DB0B7B5B09E9CA3968380816E6183
S113120063666B737C767A73574E504B42515F60C2
S11312105D65747F9AAEAEA6AAA5918FA4A59EA380
S11312209A8C817476869191939D92736D6F6759B0
S1131230554B4351647690B2AF9B867469777D8138
S113124089806948536561739094989888828886E8
S1131250777C968E778290949C9B9AA9B1AD9A974D
S1131260946B58637188999B9995877A717B7B6E8F
S11312706B5B555750495360666B80928D856D55F5
S1131280555353698EA6A9A29E9C938E8B98947CE9
S11312906A68707C87A0BFC1B6A9AAAE9F82767522
S11312A05F555E7B9085847D82867A7571684D3D3D
S11312B039495B5C606271717091AFC3C4C9BDADE3
S11312C09173656883807F919C98958A78776E4F37
S11312D04055737E8499A7A9988587908A7B7984E1
S11312E087777C7D6F717164544F4C53606B70725F
S11312F0624D566C8799A2AFB9AA9095B0B7ADA9C3
S1131300A59A897C7F96A9ABA2A3998171757A77F6
S1131310664B484C5B5E61798575675E5E6B5E54B7
S11313205D65615B6C90989AA69BA5ACA1A9B3B5C9
S1131330A992897968697392A4A08F88857069706D
S11313407B76756D63747A798799968C9AA3968F58
S11313508B806E614A3A494D48536971645862669C
S1131360757F7E868B8377809EAFA19591909999A6
S1131370A3C7CEB29C948C8C887781A5A9888285DA
S1131380766B6968696B5E5C6978766A67636467C3
S11313906D6F6B77665357586A74808799AAA193C7
S11313A08C8D837A7781878C9BACBABAAAA69E92DD
S11313B0928E8D8D847B7A79797D735F53545552E7
S11313C0626C674C3B4155747282949C94889AB4C5
S11313D0C8C8C6BDB5B09F90806E6D6B6F6B6B74E3
S11313E06462635E605E656D80949D9691978E9A4B
S11313F0A09E9E959A8C7B75715F5B6750555F5478
S11314004B3F3C3C547E857B8F9DABB2A8A8B2A6D3
S1131410877D7F867F7A828D9794808089816454CA
S1131420606D8094AFBABAA0908E888087958D7DC8
S113143070716B7573615F564C433F52717F8F942B
S11314408980716C6F7D90938F8D8F888695A7AE00
S1131450A6A79382858B8B868C82767D9081768BF2
S113146084726D594E61716960757A605B6C87A690
S1131470AB9E97948E8A8C9BA5A094837F736D6C8E
S11314806D726562625B5C727A707B7D665E6F7E94
S11314908799A8ABB3ACAAB0BDBDAA92746F685FBC
S11314A05F7174665748473F536670756D614E5D52
S11314B07281A5C2BAABB6A39CB9BCB0AAA7715439
S11314C06B71748791726867587099977468584CF7
S11314D05E838A8CBDB79297A88F8195877B83683A
S11314E02F3D62484472816D797B616E8574679289
S11314F0895A73958596D2D7C6C6AA686D957358CE
S11315006C875E57787592ACA792A8BA8D6F86885F
S1131510635B504E6A7E8389A08A61544E5965711B
S1131520768A805F5E687C798E9E9CAA9D757DA379
S1131530927184938B8699A7A9C1B3999A9B7C765F
S1131540877F5E525C434E7E8999AF997168715171
S113155033455C6277848B9CA086726D6B6B596299
S113156071777E72768D827A8894A6A6A6A9A7B989
S1131570AAA4BAA26A647D7086A3A290928F5447EB
S11315806A4A264B605A6E806E6E8F9D8BA4C6A8E5
S11315909FA877617D78667F9986838361405565CE
S11315A04E52757B6270837B92A5959ED4D9B9C047
S11315B0D6C9BEB0816D5E432D4B6E6E6A675949C4
S11315C0423C455A5C5863696F6F8995A4C5B29BC8
S11315D0BBC59681948C79767668708E7776A29B5B
S11315E07B7B72615D838C7E9A9B879EBAB7BFD6E4
S11315F0D199675C4F4B5B6066695D3D44637E8255
S11316007C7B676562677F81635D64737F8A959085
S11316109BA19AA4B099748384758F989598B1A569
S11316208CA4B68B737C605869644C5273533F69C5
S1131630736A84907D90998C7A8C9178848B7F875F
S1131640A89B909F977B5D5A4A394A524F6F948C5E
S113165096ACAFB2A99F9D9894909BA995848682DD
S1131660838783868570574D514E40546F6C6B5100
S1131670526B8395949FAD9F757277959F8A8D8BDE
S113168094867493B2A491857572717E9BAFB08D6C
S113169077898A8DAAB2905F5D695546443F4A5D59
S11316A04E496C8C9081848F87827E80898F858857
S11316B0959C998898917773747A7A696C73666F3C
S11316C07687A8A89EA1A9C4B5A7AF987B6D4B3C0B
S11316D0657A847A7C8E838192877369533D2A303C
S11316E02C3D677A7B80979DABB199868791949DB9
S11316F0ACA69B9CA4B0B8A8A2AF99784E476D6FD6
S11317005D5C5B6B7260696E654C395E7C71839E57
S1131710A19E92898C9DAEA494A08B758F958B6DA0
S11317206C735A3F3B4157756E636A74706A81A14A
S11317309DA1A4A4AEBECDD6DED3C09F94847A7FEF
S1131740716A59393B3F3D4E525C695D4A4E5E7D3C
S11317507464757B858D8C9DB8B9B0968F9B90977A
S1131760AC9487856F665B595F7B9484737F968D99
S1131770A3B0A8A190847375767A737D857C786B09
S11317806667685A474350666B60627D9A9A9E9B6F
S1131790A09C8A847F8E947E8291807F847A7C93BD
S11317A08F847B746B5E859D9FB2C3A9929C938B3F
S11317B08B968D828C78636C77595B6E4E3E49654F
S11317C0747C6D46567C644C6B8F8E817976A4BA9A
S11317D0A08FA9BD9A80786F7B7B5F6996B1A08842
S11317E0A4AEA6A38189A09367455B7B858E83768F
S11317F0786B5D6D858C847B7D6969634E65868CB1
S1131800755E6B888080828891754A4D7281887874
S1131810828D7C7D9CC9E0CAA2A3978A75668CA33D
S113182097797997927C6E5F55453C31476E717418
S113183083988E89978B8792908284989587908FCE
S11318406E74816D6774775E707A64666A7682906E
S11318509795B8CFA78899B0AB9F8F8B99864A3656
S113186066745E4F4D59655B4E6C9E9A6D687B77CE
S11318707C8A859AB8AB877D9596857E5F46453888
S1131880365981999B9AA0A5B3A48C98AFAA928B40
S1131890A5B4A1A09FA0A07C4F5469717463766D18
S11318A043333D61776F6A7981928781A2A482551F
S11318B0556C6B707E93949274557D9B9FA9BEC1A9
S11318C09B918A6A70867F787D8691939D8E6760EE
S11318D05C41416779776C71706B7F8895B5BCB753
S11318E0B5A5A39994928D82635A544D5466615957
S11318F05E42466F7C716A7E7C788D9CB2CCCDA7AB
S1131900B5D0C8C4B2AFA48270513F565953718444
S11319106E4E39373A4C52535B615E6393A9ACB453
S11319209F92897B829FC1A9878288909AAEBABF11
S1131930A7846471785A607F887E7C7264636A527B
S11319405E8D897D9393808A928588A29982858C05
S113195088929C8E7969613F2B413B3A41424E54B7
S113196075838FA2AFA28A9AB0C2AFB1BEB9B1AB30
S1131970A7B9D9D1A998936532314036464D3F5124
S11319807666506880745D5B6E879A9C81869079D8
S11319907191AEA89489787166535667796F7CA16A
S11319A0A2A7AC9FA9A79B95A8A98278777A7478F7
S11319B0808B9B866C718C77626E675B56616D7AE7
S11319C09CA297A4AE906D6B585664593F4E7973A0
S11319D06C82836363605C709CAE9EA8A89E9F9F8C
S11319E0B7C5B9B18C868B958689B0AA844C483921
S11319F03D54545E7B82604F6B836165837F796E57
S1131A005B6199BEA4A2BEBD876B858384846E6925
S1131A108494706F8D83626D7E8096928581A2A47A
S1131A207875949D99AFB8A9A57F4E4E647A625992
S1131A307F82612F283742575879938E785C729B46
S1131A409E84899591928F9299B2B288819FB7B5FD
S1131A50BAA487857D7288ADAB8C786F534C5B617B
S1131A605876927E7B837C777B7A71706E614D6150
S1131A7072657E907D5A5A54526D757B809BB2A3D9
S1131A80A7AD9E9088909FB8B5A59699936B6085F5
S1131A90ADAA968F817165564A5169645370928CD0
S1131AA06A5860687A7F716E84734B56768B87842C
S1131AB07878878E7C7D9D9882819DB4AD968AA22C
S1131AC0BEBAA9A9BDB19290949B88665660766A05
S1131AD03E395857392F47596154496A8E9889803D
S1131AE08D948889A1BCBEAB876E6F756A5F79954A
S1131AF08877705D7199AAB4CACEA5757074799609
S1131B00AB9888A498819DA282747067585B654ED7
S1131B1041574437526A6F737B63565552526A9BDE
S1131B20A498A5AA938C9693A6B0A18F8AA29B820F
S1131B3098C2D7B79186788087766D7F7E5B547F15
S1131B408A71514D5768827578909B6C5367857F75
S1131B506151495A7A847C8C8A7765799CA29793DF
S1131B60867B7F71607CABABA0ACC8D8B7978B94F5
S1131B709F7D5B5D725F4258819286705E768B6C4E
S1131B806176744F394B76A2B1A38D8B815D6199D7
S1131B90B4A8856250607D6880B2B8926E74859CEA
S1131BA0897980858C625981A7BA9B90A4AE8E688E
S1131BB07184ACAC754E434E5159778370625F604B
S1131BC07B9A96716C724E4F6D716B859A7B6B8AA2
S1131BD0A3988983809DC7B496A6AEABA3A099951C
S1131BE0A39B7A879A7F6E6D777069614A516260B0
S1131BF04F525F5E5B4F506B79767A93A1B3C0BF4F
S1131C00C8A98C77645B5152638292887B859182E8
S1131C107E938E7D654E5A86B1AB96A0A890839D27
S1131C20BED6C08D6B666E51445E72724C3D62903E
S1131C308F6C5D616E67515061797A7686837A80A4
S1131C409297BDDCD29D859579809C987F97A78AD1
S1131C507E9BBAA58A7958668B6F4B596B5B494A50
S1131C604C546F6A61737E654F668496AAADA7ACC7
S1131C70B0B2A6979AA28A684E5262697486959306
S1131C80837C8A7D82857F8470534861808399BF79
S1131C90D0BBA5B6A487644038486358597E99954B
S1131CA08FA19F99844D445C72584A7982706E7EEC
S1131CB099B4BC996F73786779A09A8183837C7A8D
S1131CC0939B8FA0A99A94A19B9992806E585B5E76
S1131CD06F888A7C6B777C6F55517570615B536D2F
S1131CE089816E738285787E9FB4BA997C7A7F8E5F
S1131CF096AEBDBAAF9A8A90A29260413F45608386
S1131D00938183744E506B685B6C6D6E719198987F
S1131D10ADB39F97B5A2887C70767872766760526F
S1131D204964798260364874848D9DA399836A6777
S1131D309ED8CE93868D768091A9BBA46B4663937F
S1131D408964767F746D657BA3A2845D555A5D6654
S1131D506A72746C6A8AA1A3A2A38F80839A988DF5
S1131D60A18B7D8B8F86868C7C7A7960555D6D60C6
S1131D706381888468586B81838587938B706785BA
S1131D80C5D8A2666B67687784978E5D2B2B5289C2
S1131D90878CA396836F6B89B1AE8F797F92949B66
S1131DA0ACA69E8C7883807B8E9E9A9085775E66A7
S1131DB07263808F7B6A6D6851617D745D62563891
S1131DC05C8389948C85868CA19087A99D8182A24D
S1131DD0A99483716D7E95888C9C936256868581C7
S1131DE084807A70756C6C7A7660608DA392959B12
S1131DF0836E7A8996998D7F6F7B6D6179755D604D
S1131E006B6C7F84787D8489867E9492797B8286CC
S1131E1094A0998F8F958F9498806F716F54556AA1
S1131E2078735B6171888D747FB2B78C89949FA835
S1131E30A08B6F76785B517684756D6F6F6B766B64
S1131E40626B857B6C8595A3B3B8BAB5AB9E724FB4
S1131E5051666A797F7A696F8C8B8D86814F3F5A80
S1131E6055729AA5898E9B77687B8E7D6B73757C82
S1131E709391879FBBA99C937C614E57749C9A80D5
S1131E8074878B8C97A4A7926E5471908D7B79790B
S1131E90624D4A5A8CA5836A7C8D827C8D8C8D8997
S1131EA06D67869F7B616F888A6B545B6F694E5C3C
S1131EB07D8A8365647AB6C1A5B4C6B8A29F999D8C
S1131EC0A8A47F788F9477717B7470635B585F7478
S1131ED0664E5467746B6E6860698C979AA4A59576
S1131EE06571807F95A089798B8B73798A7A686E06
S1131EF08498AFA6867D8D8F91A5A79C71524D5B6A
S1131F006E686178837677788D8670534C69726ECB
S1131F10728D93807D8098BFA370667A7D6B727694
S1131F206B6E6F6A88BFBD90808E9B8F8182A5BEC9
S1131F30A08391B6BE8F625A858F58434F5D4A4B3A
S1131F40627189865E497DADA5989E9182877A7477
S1131F5094A6835D7A8F726B6959666D6572868EFD
S1131F606961869F9D91A1AAA9A4A1A8B8AE7D6923
S1131F707C86856B4C4B52523D45737A674F406467
S1131F807F7A759AC2BDA491B1D0C98D6991A468B4
S1131F90395F89A287686B85975645748678617224
S1131FA08EA9B29292C2D99D7E91848B926F4E6516
S1131FB06F544D696C5C74694041555B6992B29988
S1131FC08F9F928EB3B4938975677388866A6B8585
S1131FD0755E4B55686F5743628EB7A692ADC6CAFD
S1131FE0AEA2C8CFC98F44488085454477A197667F
S1131FF0404A787B3B2A6690916672B0CBC37F6E71
S1132000A5C7AE8C95B3B4845C5D89A275454E7545
S11320106D453D4C6A76645672918B707DA79880AD
S11320207D7C849AA8B0B6B17130426880838A8D71
S11320308F83696F90A28366758591917D87928A5B
S11320406A5A87B6B3957D8487664753879C998778
S11320508BA5A88C6A7DAF923F456681805C6283C4
S1132060B091526E8271544B5D70866D678EB9A6C5
S11320707E909188907B51618B968A9BAD908F8DD9
S1132080614E6A726C88A5A599ADB49BA8A77A64C1
S113209057485B80987A5A77817B6F67797A59328F
S11320A03D67A7BEA3ADBDC09969879899773226CD
S11320B048876B568ABAC28B5D5D99CD995580B6B7
S11320C0B4836799BFC97E37578B733833528A7F7D
S11320D03A3683C5B37877858A7B55579ED0A65EFA
S11320E068A1AC99797D9BAF8D77848683654658CA
S11320F075907A72866C707E8493B3B68C65696FC2
S1132100849183777B7E615B7D8877867654567F66
S11321107A687D7B5F6D8F838FB8BF9C918D73735D
S1132120837978A0AD8B788793929EA498A09663C8
S11321304B5F757A8192876B43324A727C6D6C5B1C
S113214058566A9DBFC48A698CA7988890979B81CA
S11321505A6AAED3A66F55484A4635468495623BC3
S11321606195A2A59CABC4B68F83A7C1C49B767DA1
S1132170858357536563656F6D789A8C655964746C
S113218094A59A8FA0917078897A7A989C8C95A559
S11321907A5E66533B5B675260807E66849DA6B917
S11321A0B3836A756A4D517B8A8D8F888DA19C6833
S11321B04D5E584C506F8379767B9AB5B0AAB1B016
S11321C0BDADB5D6D6C5897087866F725D44413D75
S11321D0496D907337212630578094A1A4957D9141
S11321E0C5D8D3BA8363677C7C727D776255626C91
S11321F07C7D676D76736079959188899EBAC8B243
S11322009484836E63787E6C534353799590878A64
S113221090876E647FACB1916D758D857B69799E75
S11322209B8A828F937B6051566C6F6171A1A69ECD
S1132230AC9F97969B907B7F83788074525383994D
S11322408B8B877B6D51302756705555729F9D91AE
S11322507774C1C17C454F96A59B8485B8B78B76AE
S1132260A4D4C78C544B737E6D6485AC82584D796D
S1132270ADAB8F6F788F7B5E5D7C9C917664675885
S11322804A4F5D87A4AF99766E72869D968F797159
S11322907C8CAFAAA88D603C1E367094896A7483C6
S11322A074768AC3D6BC8F76A2BFA0787199A686AD
S11322B06F608CA47E4949757C502D316E9A7B5396
S11322C04D7D7A5F5F8DC4C091666B91A9A29EA17A
S11322D0A48D726F8EA08B746373888A817A8587CC
S11322E07D8287857C7F949BA997807867512E395E
S11322F066704C262D5A7D99A3B9C6B48E72A0CEB1
S1132300D0AA8F8985715679A8A17C5658737C68A8
S113231042466D77646A89A6B5A9A6B6D2B180870C
S11323208D847977626A7B5843416A73493A2C50A9
S11323306C787B87A4A88F6C89ADAF8E82A2C0BA5B
S11323409772708C875F5E7E8276606D8EAAB3878B
S113235084AAA4868CA6A0938C6B4F6F8C82747D08
S1132360766571715540595A4D617E8599B099933E
S1132370A6B496646155535B597298B6AB9FA1A8F5
S1132380AF94695C666C635D6886A7B8A490A1A3EA
S1132390895F5069774D322D3D6B7F8082A1B49562
S11323A07693C4B8906B556B8A8C7586B1B5A6A527
S11323B0A5998E6B3F3C496F796E71749AA39E9474
S11323C096A0A28F7A8D9F9854354F5F6A5B5365B0
S11323D07C8B6E7693A09C725562939B737DA9B39C
S11323E0AA9F9B9EAB9C6A52747B504A5E80837307
S11323F060667B7E776D80978A5F5680A9A7978FEA
S11324009BBEBF9B91A19B784C4258677D61587CD1
S11324107462657C746D7266597FA9ABA1ABACA480
S1132420B7BDAD96A890605D7A888886645A667157
S11324305F435662677262617296998D8781907C60
S1132440627290A79B8172737A7E7B7B9EA8967240
S1132450658CA89774637995918483A1B28B585E37
S11324608E917466566C877E62617877696F828A12
S1132470907B5B617597AA9A8F899D9E8C848792C5
S1132480958A8399B4B47745566A6654444B697EF9
S11324906F7493B0AA7D566397A17076A6AA9476BA
S11324A0707398A9836D978D5E5A789181705B5C87
S11324B0768C827E8FAA97726070957B727679791A
S11324C073797798CBAD797A868E8A8274728C6CA4
S11324D02E3B80A690806D677F7C676DA6AF7E677C
S11324E06A8297B1B2A4B2B490666167778D6A418B
S11324F05E8E9582798A968B632F4B7F926F4D6A9D
S1132500909E8088ABA896744B4A76A68960819B7E
S11325108F92AEB7B7B2844F5B8182706D7885833A
S1132520828B8B9B9370625E78877766676F5F643C
S11325306D6A798D97857B7F80929068627D8D86A8
S11325406B6C828B8D736D9AAFA27F86B4C5AE918E
S11325509C9A85613D3E568B824B6499978A999FDC
S11325608C826F3C376A8D8379819B9C939F988D75
S1132570795950546784827E7E928E889BA39C9066
S1132580907E7177898BA49C8C96A9B28B716353CE
S113259047432F3D585E687597B4B2A9978477581E
S11325A0525E6974899B9FA2A49F868486726C7F05
S11325B0776363667179868695B3B4B09F8E8E8D8A
S11325C07F6B7493AF95818F827863413E5B6853D0
S11325D04E7A957B6D7B808C87604E648990889D54
S11325E0B9B49668578097886D6E86847783878D93
S11325F09687889BAAAD996D48517587909D8C7A72
S113260076685B6499965F48526376786E728898B0
S113261098B0C1D6B1613D36527C8FA9B6ADA48EB7
S11326209DBABE97704C2726273D5E7F9C9B8A8966
S1132630A0A99B80765E475256658EB5B1948DA352
S1132640A8A6967971573D3841738E99B1BCD2C909
S1132650A2827D8D8357384054688A87779AB498CC
S113266072708886775C476A8E8D89A7D1CC905525
S11326704661837E6E77807057608DB7C2A16E4DC0
S11326804B5659729AA39174768198B6A8805E5677
S1132690596A79858AA5B29B979FAD95695B4E4926
S11326A04D4B5F738A83768DAEB596816E5F666996
S11326B075869DB2B0A29DADA49981716044494BC9
S11326C0597A958B717FA3A6A6917D74543A324CA6
S11326D085A0A0A59FB5AA8067676D674B324A6441
S11326E084AEACADC9C1976F7796998F71678DA58C
S11326F09B8FA0B598532523466A5549656F5F465D
S113270065AAD0D0A7745C5D748799B3B5987D85AC
S1132710929D988D826E665A53677E80847D879DD4
S1132720969599A0A0856A535C7D7A656C8992819F
S113273074797B817B707485816A688194867E78E4
S11327406760788A82879593817E878C9A9B806460
S11327506B7188A29DA2A597786B8C939A8B503944
S11327604B6F646E95A08D67697E8D90775D514A3D
S113277060697291AC9B7098CACDB1A299563D4ADA
S11327805B80ABC3A49AB1A7878B968144282A4463
S11327907E8C86909DA09A919788845E2D2E3F53BF
S11327A05E78929DA19F8982837863524B4D6C8C95
S11327B091B2DBE3D0BDB7AEA58F705A6A7773725E
S11327C07B837B7A766B6965635D565B64695D6662
S11327D076909A938176828C867383A6B39E94AE08
S11327E0BCB8AC7C5A637B6C50677D866F6C7E880A
S11327F085694F4749667E8BACBDAF7377B3C3AE73
S11328009DA06C3F4D6378A3C39F6C6D6749597558
S1132810866747454A6D857D809291887F8D94A90E
S1132820AE7A62757E767B92A6BBD1C9B6A290774A
S11328305D565B6A7E6D6783918A7D857B705E39A8
S11328402A43657583949B949699969897988D7B63
S1132850717590816A7C96967264505B8F8F6966FD
S1132860829B9487A8C2D3AA7468749889645379A4
S1132870946F2D2E729B8057596D866B434484BB95
S11328808E4E68A8BEAF9B999EA181565BA3C0A73C
S11328907F6A8F9A8E7D7F9EB48A565886A07D70FB
S11328A089A2AF935960736A4526588782665D7C16
S11328B089766765848C705E5A6B82888598A89E39
S11328C08C959B9EA69B846C67786C81A2ADBEB2EE
S11328D0AE9783836B515C5D5F696A7F9B96868349
S11328E0856E616E6E6A645F53586F7C6E7C8E9DDC
S11328F0958081929F8882888F8C826A5E7EA4A054
S113290084939F938F75727C887E5E627697B3AD55
S113291098A3B9AC6B4E5F7278644E598885563F64
S1132920729E8C60394254656D759DC7AE764D6C50
S1132930B0C9C5B6B9B692523861A49F716A7F8F87
S1132940939192AFA9824744799894878A94785650
S1132950555C828C7F60525A60576287958D797777
S11329606671797D818DA48C73818AA1B8C4C8A74E
S11329709B7E5E687A868984858D92928D9F9C7FEA
S113298074624830323E4A637767607B9EB4A99E86
S11329908E886D4C557799B0A78B8A979A7A748AEA
S11329A08072574F637F958476798098ACA3ABC3CC
S11329B0CA975E67767F7A747E9DAF97645C9BA4AA
S11329C07A462C28243C556A7E8E8C887D98AEAB42
S11329D0885B636C8289868894988EA6C3D4D4B9A4
S11329E0774B585C5F646A625E64718AA7C2BD9D5E
S11329F07157567A7B7D6C585F7E9FB4D0D4CFA636
S1132A00653E474942281C263B576F90C0CED2B63C
S1132A10949E92805A44373F5D7C87B1CBC7BB9F5D
S1132A20968C8F885C3A38445F789AB7D0CCA88D5E
S1132A309E9E87633029252522396B9EA99497A9E8
S1132A40A48D827F927666739FBEADA08A9F9D9768
S1132A507C6B76735E46465E7E7D8A96AEC8DDE00C
S1132A60C8B18F6D4B48656F6E502B28425F7893C9
S1132A70A2986B3E486E93996D4D45435784B3E1DC
S1132A80E2E1B17E868985837E5D5158586EB1D767
S1132A90DDBE8A6654646A4A3639403C456F9FC934
S1132AA0DCD3BCC09D764D313A4551475D7993984E
S1132AB0929EB4A6846F68786B7289AFB39375766F
S1132AC08B9BB1988A8168392F39587F86857C978A
S1132AD0AACDCDBBC0B38F5953615F4E3932405E2E
S1132AE07C8995ACB3A0817D7E899B8F8389928DEF
S1132AF088928E74717C78879B8C736C5E565F654C
S1132B007469697A858FA3AEA7B09C7E5D43598AA8
S1132B10A39D7D7F8F757791A59E83653222446F37
S1132B206F69969F8B98ACB5C5C991413734577B73
S1132B3092B6B0AC8E7A829CB2A86E4638354458B0
S1132B407784BAD6BEA19EC2D0B47D6665513F39A2
S1132B50467690745167A7B3947A7D746C6148513A
S1132B6071938E8FA2B8BDAE938B87785B3231326E
S1132B70475D5279BBD1D5D0D5C29A7061728E941B
S1132B806B5C67737384AAA67A5E4137304B615AD3
S1132B905661839EB8BEC5D3D3A47D6B7E6E3128A7
S1132BA02B32405792B5B8AE8F96A2947F72677459
S1132BB0768EA6B6CFCEC8B2A8A28E5B342F2E31A5
S1132BC04757587C8B735E659BBAAC959196917C04
S1132BD0604D63867A5F80BFC6AD918A71614A3267
S1132BE041648F8991A8CBD8BDA095938371464643
S1132BF053595F486596A4A29FA2927A605E698049
S1132C00825954708A9596ADA06B57484D587C866E
S1132C106A5460819FB9C0C4C8BF9F9496BAA66520
S1132C204B474B4F5A8AB3B3956D666B61554E460D
S1132C304F4C687699C4C9CEBBB0A49C866E4F3BFA
S1132C404B656E6D819087718095826C64564448A3
S1132C505A7F98B1BBBAB8B8C9C0BCB5A47C3C26ED
S1132C60273D5F7885818891826B779089553A49B1
S1132C70799D887F8EB4B8998282A9B27B4E587BA5
S1132C8087706675A5CDA48386A1AA88614F6C7AE6
S1132C906F4F70989980493B4585925E4D6A868155
S1132CA0797C9FC4BA8A7895B8A67E6A676A7D7E65
S1132CB087A6B1AD836A6F7D9A9A7D716F6347561B
S1132CC06E7D8A947F5A72898284947C6960615D86
S1132CD0799B8F8C7B6760797E74698297909FA9BA
S1132CE0B5B2AA99746F877A666C7B6D687B7D8BAD
S1132CF09090968E897574836B5B5A6A7A8C99A6C8
S1132D00B7B0B4A18677613C251C1E39608DA8C17B
S1132D10C6BCA9958A908B7563637B919A9EA59C8A
S1132D20ADB9A5817880623B343F5E664D5A83BA63
S1132D30C0B39894B29F5D3C58777042313A729711
S1132D407C7790BCB4916A6A878F78629BC9D9BD3D
S1132D509E95AFDABC775D6A5643342D4C776D4946
S1132D604A7EA0907163667B887F97ADC8BE9A8CBB
S1132D708E97AB9C7F77735C3A56626A7A805D5615
S1132D807179768FAAA0A39A9B868E908479706EAF
S1132D907E989177617976707D8C948B8972647555
S1132DA08480726E71686F8F9CB2A79B876A5A4049
S1132DB05B777866575E74868D99B1C2AE857D92D5
S1132DC08573808080808080808080808080808007
S1132DD080808080808080807F80808080808080F0
S1132DE080808080808080808080808080808080DF
S1132DF080808080808080808080808080808080CF
S1132E00808080808080808080807F807F807F80C1
S1132E108080808080808080808080808080807FAF
S1132E20807F8080808080808080807F807F8080A1
S1132E308080808080808080808080807F8080808F
S1132E408080807F807F8080807F807F807F807F84
S1132E507F807F807F7F807F807F7F7F7F7F7F7F7A
S1132E607F7F7F7F7F7F7F7F7F7F7F7F7F7F7F7F6E
S1132E707F7F7F807F7F7F807F807F80807F807F58
S1132E807F7F7F7F7F7F7F7F7F7F7F7F7F7F7F7F4E
S1132E907F7F7F8080807F7F7F7F7F807F7F7F8039
S1132EA080807F7F7F8080807F7F7F8080807F7F26
S1132EB07F8080807F7F7F7F80807F7F7F7F808017
S1132EC0807F7F7F8080807F7F7F808080807F7F06
S1132ED07F80807F807F7F7F80807F7F807F7F7FF8
S1132EE0807F7F807F7F7F80807F7F807F7F7F80E8
S1132EF07F80807F7F7F807F807F807F7F7F8080D7
S1132F007F7F7F807F807F807F80807F7F80807FC6
S1132F107F80807F807F7F7F80807F7F807F7F80B6
S1132F207F7F80807F7F808080807F7F80807F7FA5
S1132F307F807F807F807F80817F7F7F807F808094
S1132F407F7F7F80807F7F7F807F80807F7F808086
S1132F507F807F7F7F80807F80807F7F8080807F75
S1132F607F7F7F80807F807F7F7E81817F7E7F8067
S1132F707F80807F7E7F8181807F7F7F8081807F53
S1132F807F7F7F81817E7E7F8180807F7E7E818244
S1132F907F7F7E8080827F7F7B8182807E7E817E38
S1132FA080807E7C83817E7D82807E80807C7F8524
S1132FB07F7D7E837D80817D7E82827D7E81807F18
S1132FC0807F7E81817F7E80817D817D7E83827E04
S1132FD07B82827F7E7E7F82827E7D80817E817FF6
S1132FE07E7F827F7F7F817E817C7F867E7E7C86E2
S1132FF07E81797E88807E7A857D7F81817D7F80D8
S11330007E8180817C807B85827F7E7E827F8375CA
S11330108485807A80857E7C778D807F7684827CAF
S1133020807F837D7F7C8381817D7E7A85827F7FA3
S11330307E7F807B7E89807B7B84827C768A857D93
S11330407981867C78858A7A7B7C877B85807A7D8A
S113305082837E847C7E798388807A7F8180797C78
S11330608D807A7B8185747D8F80777A8583768065
S11330708B7F777D827F83827A7E81847D81827952
S11330807988897B7A81837678928675788285704F
S11330908A9078757C897581937A737E867B7B8F21
S11330A082707C88827E7E807E80857F7B7E7B8131
S11330B08B817D78817B7995857774817C7C9884FC
S11330C07172857B83967F6C76887C87907C6B7B22
S11330D08881858A796F7D8E81798780777E887EE5
S11330E072888E797A807D6F9095796F7C7D7997DF
S11330F091726B7C7D8D958368727D889788736AE5
S11331007C8093907A6B7385869085756E808683B8
S11331108B837573837D878D8270797C81938A77A5
S11331206D7B7A94927E6A75788C9A856F6D7981BD
S11331309C8D7668777C95967E69717B8A9B876F78
S11331406A79819A917767737C9499806A6D778D97
S11331509F886D687386A09272666F7F9D9A796569
S11331606C7996A0826768758EA38C6B657086A255
S11331709672636C7F9F9D7B6367789AA483656373
S11331807295A78C67606E8EA7936D5F6A86A79A07
S1133190745F667FA3A17B6063789DA6846360727D
S11331A097A98C675E6B8FAB946C5D6787AA9C73E1
S11331B05D6380A7A37A5E6079A1A882615D729A3B
S11331C0AB8B655C6C93AD946A5B678AAC9C705BFB
S11331D06382A9A3785B5F7BA4A8805D5C74A0ABC9
S11331E089615A6E98AF906659688FAF9A6C58632C
S11331F087ACA174595E7FA9A87C5B5B77A4AD847E
S11332005D59709EB08D61566A97B1966755658F0A
S1133210B29D6D566085AEA575575C7DA9AB7F598F
S11332205975A1B0885E576C99B29364556692B390
S11332309B6A546089B2A471545C81AFAA795658D0
S113324079A9B082595571A2B38C5E536A99B69626
S113325064526390B59F6B525D87B3A87352597FD4
S1133260AEAE7D555576AAB48558526FA2B78F5D20
S1133270506899B899634F6190B7A26B505B87B55A
S1133280AB7350567FB1B07C525277ADB584555074
S11332906FA6B98D5A4E699DBB97604D6293B9A1D3
S11332A0684E5C89B6AA724F5780B1B17B5253768F
S11332B0ACB686554F6EA4BA905A4D679CBC9960C3
S11332C04C6093BBA3684C5B8AB7AB724D577FB21B
S11332D0B27B525276ABB887554F6DA4BB925A4C11
S11332E0659CBD9A614B5F93BDA4674A5A8ABAAC88
S11332F0704B5582B6B27A4D5179B1B881524E7144
S1133300A7BD8D564C69A0BD985C4A6298BE9F6368
S11333104A5C8FBCA96A4B5786B9B0734C527DB5D1
S1133320B67C4F4F75AFBB85534C6DA6BE90574AC4
S1133330669FBF995E495F97C0A264495A8EBEAA30
S11333406C4A5584BAB1744C517BB5B77D4F4E73FA
S1133350AEBC88534B6CA7BF905849649FC19A5D1B
S1133360485E97C0A26449598EBEAB6C495385BC74
S1133370B1744C4F7CB7B87C4E4C75B2BC85514A85
S11333806DABC08D564866A4C2965B485F9BC39ED6
S113339061475A92C1A768495488BFAF6E4A5182A7
S11333A0BAB5774C4E79B6BB7F4F4B72AFBF8851DD
S11333B0496BA9C191554765A3C3975B475F9AC2FF
S11333C0A061485A91C2A768495688BDAF704B5353
S11333D07FB8B7774D4F78B2BB824F4C70ADBE8A81
S11333E0544A6AA6C192574864A0C19A5D475E9840
S11333F0C3A162475992C2A86847558AC0AE6E49B4
S11334005183BCB4744B4F7CB8B97B4D4C76B5BD7D
S1133410814E4A71B0BF8851496BABC38D54486724
S1133420A4C4945748639EC39B5B485F96C3A16042
S11334304A5C8FC0A9654A5889BFAE6B4A5683BBA4
S1133440B3704B547EB6B6774D5278B1BA7E5050B5
S113345072ACBE85524D6DA9C08B544B68A5C29009
S1133460574A65A1C2975949619EC49A5C485E99BE
S1133470C49F5E475C96C3A261485A92C2A664493F
S1133480588EC0AA68495689BFAD6C495486BEB0EF
S11334906E4A5383BDB3714A5281BAB5744B517E9F
S11334A0B8B7774C507BB6B97A4D5077B3BA7D4EE6
S11334B04F75B0BC80504F71ACBD85514E6FA9BEE5
S11334C089544E6CA4BF8E564E69A1BE93594C6567
S11334D09DC0975C4B629BC19A5D4A5F99C19D5F99
S11334E0495E97C2A060495C94C2A262495B92C2E1
S11334F0A563485991C2A56549588FC2A865485724
S11335008FC2A86648578EC1A96748578CC2AA675C
S113351049578BC1AB674A578AC0AB684B5788BEC3
S1133520AD6A4B5786BCAD6D4C5784BBAF6E4D56E0
S113353082B9B1704D5681B7B1734E567EB5B2752E
S11335404F567CB1B479505579B0B57B515277B0B0
S1133550B77D525076B1B97E505075B2B97D504F97
S113356076B3B97D504F76B4B97C504F77B3B87CFD
S1133570505077B3B77C505178B1B67D515278AE84
S1133580B47E535475AAB681555372AAB982545164
S113359071ADB981535172AFB97E525174B1B87CD7
S11335A0515276B2B77A515378B3B57750557AB24F
S11335B0B37651577BB1B27652597BAFB07753593A
S11335C07AAFB17754577AB1B17753547DB5B074AB
S11335D04F5481B9AD704E5686BBAA6C4D588ABC07
S11335E0A7694D5A8DBCA4664D5C90BEA0634C5E29
S11335F095BF9B604C6199BF985C4D649EBD925A87
S11336004E68A0BD8E59506AA3BB8A58516DA5BBA4
S113361086565170A9B883555274ABB67E5455770B
S1133620ABB37D535679ADAF7B55597BA9AE7C5571
S11336305B79A7AE7E595A76A6B27E585675ACB25F
S11336407D545379B3B177515380B7AE714D5588DA
S1133650BDA76A4B598FBFA1634C5E97BF9A5E4C5E
S1133660629DBF935B4D67A4BD8C574E6DA9BB840F
S1133670545073AFB67C52537AB4B175515581B777
S1133680AB6F505888B9A56A4F5D8EB99E6651627A
S113369091B79A63546692B49863556793B39563EC
S11336A0576991B29564576693B5946354659AB714
S11336B090605168A2B88A5A506FA9B68355517662
S11336C0AFB27B53547DB3AE74525783B6A86E51D8
S11336D05A8AB8A2684F5F91B99B63506497B894B3
S11336E06052689CB68F5D546C9FB6895B556FA51C
S11336F0B582585575ABB17C54577CB0AC74535BF0
S113370083B2A76E535F88B2A16B54638AB19E697A
S113371056658AB09D6857648DB39A67556394B7AC
S1133720956251669DBA8D5B506EA9B782545078EC
S1133730B3B177515483B9A96D4F598DBBA1654E6F
S11337406097BC965F4F679FBB8C59516EA8B78139
S1133750565376B0B178525682B5A96F505D8CB687
S11337609F67526491B49863556A94AF9363596E9A
S113377093AC90655C6F90AA92665D6D90AC926616
S11337805B6B94AF9063566C9DB28A5D5471A7B322
S113379082565479B0AF76525685B6A76C4F5C907A
S11337A0BA9D644E639ABB915C506BA4B887565221
S11337B075ADB27A53577FB2AA71525C88B4A169CD
S11337C053638FB49964566995B19262576F97ACFD
S11337D08D625C7492A78D66606F8FA990675D6C33
S11337E094AD9064576C9DB2895D5473A7B27F56B3
S11337F0547CB2AC74505789B9A3684D5E96BC969C
S11338005E4F68A1B989595271AAB47F55567BAFEE
S1133810AD75555B83B1A56E54608BB59C675565DA
S113382093B29463576C96B08D615B7099AC896167
S11338305C739AAA87615E749BAA84605E759EA974
S1133840815F5E76A2AA7D5D5B7AAAAA77575A84C5
S1133850B3A36E525E91B9996250669FB98B5A5167
S113386071ABB47D54557EB2AB71525C89B59F681F
S1133870546391B69562566A99B38C5E5870A1B040
S1133880825B5B78A5AA7A59607EA8A5745B638184
S1133890A9A1705B6486AD9C6C59658DB097665622
S11338A06998B38D5F566FA1B283595778ABAD78E1
S11338B0555A82B3A56D545F8EB69B64536699B70F
S11338C08F5D546FA3B383585779ABAE78555C8240
S11338D0AFA56F556289B19D6857678FB195645ADA
S11338E06B95B18D615B709BAE855E5D769FA880A4
S11338F05D617C9EA47C5F647C9EA57B5F637CA4ED
S1133900A4785D6181ACA07058618CB299675466EB
S11339109AB58D5D5370A8B27F56567FB1A8705387
S11339205F8BB49D66546795B49160576E9DB18664
S11339305C5B75A3AC7D5B5F7CA6A7755A6482A8AB
S11339409E705C6988A4976F5F70899B947366729C
S11339508294987B696C7A999D7D65637CA2A0783A
S11339605E6084AC9E6F586390B29665556A9CB352
S1133970895D5673A7AF7C595A7DAFA771565F888E
S1133980B39D69566692B39162596D9BB0875E5C34
S113399074A2AB7D5C607DA4A2765D68839E9A76FA
S11339A0636D8395967C686F7E8F98846C6C758F3D
S11339B09E876C657294A488665E739FA9805E5B23
S11339C07BAAA676585D88B09F6C546493B39463C5
S11339D0566B9AB2895E5972A2AF7F5B5C7AA9A8D2
S11339E075596184AC9F6E5A678AAB97695D6E8E18
S11339F0A78F6862748E9E8C6D67778A938D766CC0
S1133A00767F8E947F6E6D76939F82676278A0A294
S1133A107C5F5F80A9A17258628BAF9969576893E4
S1133A20B19262586D9AB0895E5A73A2AE7F5A5CA5
S1133A307BAAA875585F84AEA06C57658EB0966556
S1133A40586C96AE8B605D749AA88261637A99A073
S1133A508064687D9398846B6B7A8A988A716B739F
S1133A60869D9170656B8CA5916C5E6C94AB8C6338
S1133A705A729EAC835C5B79A6A97A595E81AAA32B
S1133A8072586387AB9D6D59678BAE97665B6B937A
S1133A90AF8E625B709AAD865E5D77A0A87D5D6235
S1133AA07EA1A2785E68819E9C77626C8299987AE6
S1133AB0666E7F92997F696D7A909C84696776952A
S1133AC0A2846562779DA57E5F607DA6A476596118
S1133AD085AE9F6C57658EB19764576B97B28D5EB8
S1133AE05971A0AF825A5C79A7AB76586082ADA2B7
S1133AF06D57658CAF9766596D95AC8D625D769800
S1133B00A48563637C9699826A6A808C8D887672B8
S1133B10797D8A9382716D74929F846862769DA484
S1133B207E5F607EA7A474596187AF9E6A566691D2
S1133B30B39562566D9AB3895B5974A1AE805A5E8F
S1133B407BA5A978596281AAA26F596588AD9A6844
S1133B505A6B91AC8F645E7394A58A646378929E69
S1133B608769687A8D988A6F6B7786959075697185
S1133B7082999576666C829F9974626885A8996D1E
S1133B805D698EAC93665A6D96AE8C605A729FAD29
S1133B90835B5D7BA4A87A5A627FA3A4755B66816C
S1133BA0A6A0705C6786AB9A6A5C6A8DAB93655D10
S1133BB07092A98D63607594A68763647894A085D8
S1133BC067687A8F9B886C6A78899A8D6F69728727
S1133BD09E9171656E89A3936D616D8DA891685EE8
S1133BE06D94AD8B615B729FAD825C5C7AA7AA77A2
S1133BF0586082ACA36E57658AB09A67586B92AFCF
S1133C0091625B7097AD885F5E759EAB7F5D617AF4
S1133C10A3A5775D6582A59E725D6B87A29870618E
S1133C2070889C9474667183979579686F7F949972
S1133C307D676B7C979C7E66687C99A07E63657CBF
S1133C409FA17A606480A3A1765D6584A69D725C61
S1133C506786A89C6D5B698AAC98685B6B90AF9132
S1133C60625C6F97AE895F5E759BAA825E617A9E85
S1133C70A57D5E657E9DA17A61697F9A9F7A616A5E
S1133C807E9B9D79636B80999B7B656C7D979C7D06
S1133C90666A7C979E7F65687A99A17F63657A9D41
S1133CA0A37C60647DA3A3775D6482A7A1715A6637
S1133CB088AC9B6A59698FAF95645A6D95AF8D5FD7
S1133CC05B729BAE845C5F78A0AA7D5B637DA3A5D9
S1133CD0765B6681A5A1715C6984A79B6D5E6B8828
S1133CE0A7976B5F6E8AA5946A60718CA3906A63D0
S1133CF0738BA0906D6572899F916F6471889E9299
S1133D00716470879D9472646E849E9873626B84F0
S1133D10A29A705F6A87A7986E5D6A8BAA96685CA0
S1133D206C90AC92645C6F95AE8C605C739CAD845B
S1133D305C5E79A0A97C5B637DA2A5775C6781A2A8
S1133D40A0745D6A83A19C73606D839F9A73626F94
S1133D50849B987664708296977A676F7E92997F37
S1133D60686C7B939C82696979929F856766769477
S1133D70A48664637699A5836162789BA87F5E625A
S1133D807AA2A77A5B637FA5A5745A6484ABA06DFD
S1133D9059688AAD9A67596C90AE93625B7095AD21
S1133DA08B605E7697AA865E627999A68160667A50
S1133DB098A28062677C96A08064697B949F8165E9
S1133DC0697A949E8266697A929E84676879929EE3
S1133DD0856967788F9E896967758EA08B6A64731D
S1133DE08FA38D68627291A68B66607394A78963B2
S1133DF0607697A68761617799A6846162789BA6AD
S1133E00815F637A9DA57D5E637EA1A3785C6681F4
S1133E10A3A0745C6984A39D715E6B86A29A705F93
S1133E206E87A1976F616F859E9771636F849D976D
S1133E3073636F849C9874646E829B9976646D81BD
S1133E409B9978646B819A9B79646A7E9A9E7B6263
S1133E50687E9D9F7961677F9F9F795F67819F9D42
S1133E60786068819E9D786069809E9E7860687F96
S1133E70A0A0765E6681A59F715C6786A99B6C5C39
S1133E806A8AAA97685C6D8FAA91655F7191A78D04
S1133E9065617391A68A66647591A28A6765758F58
S1133EA0A18A6966758EA08B6A66758D9E8D6C6518
S1133EB0738B9E8F6E64728A9E90706570889F94D7
S1133EC071636D87A29570616C89A4966E5F6C8B2B
S1133ED0A6946C5F6D8CA6936A5F6E8EA792695FE1
S1133EE06E8FA990665E6F93AB8C635E7297AA889F
S1133EF060607699A8845F62789AA67F60657A9BF1
S1133F00A37E61677B99A07E63687C979F806469C8
S1133F107C949C81676A7A909C866A69788D9C8A75
S1133F206D67748B9E8E6E65718A9F926E636F8AC5
S1133F30A3936D616D8BA6946A5F6D8EA892685E83
S1133F406E91AA8F665E7093A98D645F7195AA8A3B
S1133F50625F7397AA876060769AA9835F62789B91
S1133F60A7805E637A9DA57D5E657C9EA27B60676B
S1133F707E9CA17A60697E9B9E7B626A7D999E7C11
S1133F80646A7D979E7F656A7B949D816769799257
S1133F909E85686877909E896A65758FA08A6B6430
S1133FA0748EA18E6B63728DA38F6B62708DA591DD
S1133FB069606F8FA790675E7091A88E665F71933A
S1133FC0A88C645F7295A88B635F7496A8886260FE
S1133FD07597A88661627698A78361637899A682AB
S1133FE06064799BA57F60657B9AA37E61667C9AF9
S1133FF0A27E61677C9A9F7E63687D979D806569D8
S11340007C949B8368697B8E9A886D6976899C8F82
S11340106F667188A0926F636E89A3946C606D8CD7
S1134020A893695E6E90A990665D6F94AB8C635E95
S11340307297AA88605F759BA9835F60789EA87E4B
S11340405D617CA2A5795C6480A3A1765C6682A58F
S11340509E725D6985A49C705E6B87A4996F5F6D89
S113406088A4966E616E88A2956E626E89A1946F23
S1134070626F89A093706370879E9571636F859D4D
S11340809673636E849D9774636D839C9876636C5A
S1134090829C9B78626A829E9B776269819E9C76F1
S11340A06169819F9C77606882A09C766069849F27
S11340B09B76606A829F9C756169839F9B76616A27
S11340C0839E9B76616A829F9C76616A829F9D75BE
S11340D0606982A29C74606983A39C71606A85A3F1
S11340E099715F6C87A2986F606D87A19770616EFC
S11340F0869F9772626E859E9773636D849C977595
S1134100636D829C9877646C819A9A7A646A7F99C9
S11341109C7C64697D9A9E7C63667D9CA07C6165C1
S11341207D9DA27B5F647EA2A1785D6581A4A0745D
S11341305C6684A69D715C6886A69B6F5D6988A693
S1134140986E5D6B8AA6966C5E6D8CA4936C5F6FA3
S11341508BA3936C616F8BA3936D616E8BA4926C34
S1134160616F8CA3926C61708BA2926C62718AA055
S1134170926E6370889E9471636F869E9573646E6D
S1134180849C9775646D839C9877646C819A997A02
S1134190656A7F999C7C64687D9A9F7D63667C9D3B
S11341A0A17C61657E9FA17A5F657FA1A0775E6631
S11341B081A39F755E6783A49D735D6885A69C70CB
S11341C05D6988A7996E5D6B8AA8966B5D6D8EA8F4
S11341D092695E6F8FA790685F7191A58E67617316
S11341E091A28C6863748FA08C6A64758D9E8D6EA9
S11341F06673899C91716571869D9472646E859EC7
S11342009573636D859E9872626C85A09873626CD9
S113421085A09973616B85A19973606A86A399716E
S11342205F6B87A3996F5F6B88A5976E5E6C8AA797
S1134230956B5E6C8EA992685E6F92A98F655E71B4
S113424095A88A64607496A78763617697A585624A
S1134250637798A48363637999A38163657A99A149
S11342608163667A98A18063667B989F8064677B8C
S1134270989F8064687B969E8166687A949D846723
S11342806779939E85696778909E886A66768F9E23
S11342908A6B65748D9F8D6C64728DA18E6B637156
S11342A08DA28F6B62708DA4906A607090A78E67E8
S11342B05F7194A88B645F7397A88762607698A7F0
S11342C08461627899A5826163799BA38061647B30
S11342D09BA17F62667C9AA17D62667D9B9F7C62C6
S11342E0687D9C9E7B63687E9B9E7B63687E9B9EB1
S11342F07B63697E9A9E7B63697E9A9D7C64697EFA
S1134300989C7E65697D979C7F66697C949C826895
S1134310687A929D85686777929F8768657692A18F
S11343208868637593A28866637594A587656275CA
S113433097A6856362769AA6826162799CA580605D
S1134340637B9DA37D60647D9FA27B5F657FA2A04C
S1134350775F6682A19D75606983A09B75606A849E
S11343609F9A75616B849E9976626C839C9A76633E
S11343706C819C9A77646C819B9A78646B809B9A1D
S113438079646B809A9B7A656A7F999B7C656A7E67
S1134390979B7E666A7C959D8167687B959D826804
S11343A06779949E8468667893A08667657694A2FC
S11343B08666637696A38565637797A3846463783A
S11343C097A28464647998A08365657B959E8468CC
S11343D06779909E886A67758EA18A6A657290A4CF
S11343E08B68627293A68965627496A68664627706
S11343F097A48363657997A182656779949F84679D
S11344006778929E866A6777909E886B67758D9EA3
S11344108B6C66738D9E8D6E65728B9F8F6E6571CE
S11344208A9E91706570889F9272646E869F957261
S1134430646C86A29671626B87A4966F606B8AA681
S1134440946D606D8CA6926C616E8DA6916B616E9D
S11344508EA5906B616F8EA58F6A61708FA58D6A32
S113446062718FA38D6A63728FA18D6B65738C9F4C
S11344708E6E6672899E90706670879E9371656E6B
S113448087A09371646E879F9372656E869D957401
S1134490656E849C9776656C829C9878656B819B2D
S11344A09979656B809A9A7B656A7E999B7D66692A
S11344B07C9A9D7D65677B9B9F7E63667B9DA07CCC
S11344C063657D9DA07B62667D9E9F7A62677E9E0A
S11344D09E7B62677E9E9E7A62667F9F9D796268FC
S11344E0819E9B796369819B9A7B656B7E979B7E9A
S11344F0676A7B959E80676979949E8368687793E1
S11345009F84686877929F866A677590A0886B66B7
S1134510748FA08A6B66738E9F8C6C65738C9F8E70
S11345206E65728A9F906F6570899F9171646F88C0
S11345309F9371646D87A19472636C87A296716175
S11345406A89A5956E606B8BA7936C5F6D8EA6913F
S11345506B606F8EA5906B62708EA48F6B62708E91
S1134560A38F6C63718DA28F6C64718CA28F6D6448
S1134570708AA2906D65708A9F916F6470889E9115
S1134580716571869A9275677082989778676E7F65
S113459098987B686C7D97997D696B7C949B816905
S11345A06A79939C846A6878939E856A6777919EFA
S11345B0876A667591A0886A667490A0896A657333
S11345C090A38969647393A38868647493A48666CA
S11345D0647496A58366647598A28266647899A2C9
S11345E08164657A9AA07F63677B999F7E65687C06
S11345F0989D7E66697C959B80686A7A949C8169A3
S11346006B79929D836A6976929E846A6877929F99
S11346108569677693A08568677693A085686677D1
S1134620949F85696777929F866A6776919F886A67
S11346306675919F886A657591A0876A6676909F72
S1134640896A667490A0896B667390A1896A6573A0
S113465091A28869657492A28868647494A3866739
S1134660647696A28467647797A18266667996A039
S11346708266677896A08267667898A08066667A74
S1134680999E7F65677C989B7F676A7D9399816B10
S11346906C7B8E97866E6C7789988B716B73869B17
S11346A08E716A70869C9172676F869E9172666F36
S11346B0879D9372666F869D9373656E869E9373D2
S11346C0666E869B9475666E839C9576666D829BFA
S11346D09677666C819C9877656B819D9977646AFF
S11346E0829F9976636A839F9974636B84A097739E
S11346F0636B85A09673646D859E9673656E849DC9
S11347009674666E839C9676666D829C9776666DCB
S1134710819A9778666D809A9779686C7F97987B71
S1134720686D7E96977D6A6D7D9198826C6D798EA9
S113473099866E6B768B9A8A6F6A748A9A8D716980
S113474072889A8F736971859A9375676F849B9445
S113475076676D839C9576676D829A9778666D808F
S11347609A9979666B7F9C9979666A7F9C9A796637
S11347706A7F9B9A7A666B7E999B7A666B7D9A9A1E
S11347807B676A7C999B7B676A7D979B7D676B7C63
S1134790979B7E686B7B949A806B6C7A8F99856DFE
S11347A06C788B9889706C7687978D736B7384960D
S11347B090776B718195937B6C707E91957F6D6E14
S11347C07A8E97856E6C778C99896F6A75899A8CC5
S11347D072697287998F74697184999276696F820C
S11347E0999578686D7F98987A686B7E9B9A7A66BB
S11347F0697F9C9A7966697F9A9B7B656A7E9A9B9E
S11348007B666A7D9A9B7B666A7D999B7C676A7CE2
S1134810989B7D67697C979A7E686B7C9399816B82
S11348206C7A8F98856E6C778B9989706B75889785
S11348308D736B73849690776B718194937B6C6F9B
S11348407D9197806C6D799099846D6B778D9B8742
S11348506E6A758B9A8B706A73889A8F7368718687
S11348609A9175676F849A9476686E8197977A683F
S11348706C7D98997C68697C989C7D67687B989C22
S11348807F67697B959C81696978939C846B697661
S11348908F9D886D68748D9D8B6F6872899D8E71F4
S11348A06870879B9174677084999377686F80951B
S11348B0967C6A6E7C9398816C6C798F99856F6B0A
S11348C0768A988C716A7386988F766A71829593CA
S11348D07B6B6E7D9397806C6C7A9098856F6A760B
S11348E08C9A8A7069738A9A8D74697085999277A3
S11348F0696E8199977A686A7E9A9A7C66677D9BCD
S11349009A7C67687C979B7F686979949D836A68C1
S113491076919E866C67738F9F896D67718D9F8C6E
S11349206E66718A9E8D716871869991766A7081BE
S113493096947B6A6E7D93967F6D6D7A8E97857162
S11349406D7688968C756D738295927A6C6F7E9471
S1134950967E6C6C7B9399816C6B788F9A866E6A69
S1134960758C9A8A716973889B8E73697184989324
S113497077696F8098967A696C7C96997E6A6B7A6F
S1134980949C806A6977959E826A6776949F83690E
S11349906776939F856A677492A0876B6774909F0C
S11349A0886C68738C9E8C6E68728A9C8D71697237
S11349B0869A91746A71819794796B6F7D94967ECF
S11349C06C6E7A9097836E6D788B9788726D74860F
S11349D0978E766C718195927B6C6F7D9295806ECB
S11349E06E798E9786706C768A988B736B738697C4
S11349F08F776B718194947C6B6E7C93987F6C6CD5
S1134A0079909B846D6975909D876C68748D9E8A7E
S1134A106E68738B9D8E6F6871889D8F73686F85C8
S1134A209B9275686F8398937A6A6F809294806D75
S1134A306F7A8C9786716D74889A8C726B72859A72
S1134A409175696F83999378696F8095967C6B6F84
S1134A507C9097826D6D788D9987706B7688988D30
S1134A60736C72839791786B707F94957D6C6E7B79
S1134A709299826C6B788F9B866E6A758D9C896F18
S1134A806974899A8E73697185999375696F82982F
S1134A90947A696D7E96987D6A6C7B939A826B6B2F
S1134AA077919B856D69768C9C8A6F6973899C8EDE
S1134AB0716971859B9175696F829994796A6E7E2B
S1134AC096987C6A6D7B939A806B6C799099846DCF
S1134AD06C788A9989716C7486968E766C738093DF
S1134AE0937B6D717C909581706E798A9688716DD7
S1134AF07586978D766C738294927B6C707E92959A
S1134B007F6E6F7A8D9685716E7887958C756D73CF
S1134B108395917A6C717E93957E6D6E7A8F99836D
S1134B206E6C768D9C886E6A738B9E8B6F687289AF
S1134B309E8E706871879D9272686F849D9374686D
S1134B406E839B9676686F8097977A696E7D959849
S1134B507E6B6D7A9198826D6D788B9888706D7686
S1134B6086968D756D748194917A6E717D8F958121
S1134B706F6F798C9686716E7786958C756E74825C
S1134B8092907C6E727C8E95826F6F798A96887211
S1134B906D7586978D756C738294927A6C717D9223
S1134BA0967F6D6E7A8F98846D6C768C9B876F6B15
S1134BB075899A8C716B73859990756A71829693D5
S1134BC0796B707E92967F6C6F7A8F98836E6D7816
S1134BD08A9889716D7586978F746B7381979278B3
S1134BE06C717E91967D6D707A8E9584706F7987E5
S1134BF0958A746F7682918F7A6F747D8D928170AD
S1134C00727988948774707783908E7A6F747D8FAD
S1134C10938070707A8A9586716F7786948C766E9D
S1134C20758192907B6F727D8E95816F70788B9574
S1134C3087736E7785948D766E748092917B6E7196
S1134C407C8F95806F6F798B9787706E7687998B41
S1134C50726C7585968F766C747F93937A6D717D83
S1134C609094806E707B8A958671707985928C772A
S1134C7070777F8E907E70747C889285737279844D
S1134C808F8B7A71777D8C918072737A8791897416
S1134C90717782928C7A6F757E8D927F70727A8A28
S1134CA0938672707685958C776E73809592796D04
S1134CB0707E93967D6C6F7B9298806C6E798E98E3
S1134CC0846E6E77899889716E7584958F766C730E
S1134CD08095927A6C727E90957F6E717B8B9385B2
S1134CE072707984918C7770767F8D8F7F72747BEC
S1134CF087918775727881908E7A71757C8D928197
S1134D0071727987948873707783928E786F757FC8
S1134D108E908070737B89938573707885928B777E
S1134D206F75808F917D6F737B8C9383727077879F
S1134D30978A736D7485978F756C72829691796C6E
S1134D40717E92957D6D707C8D96836E7078899658
S1134D5089726E7684968D756D748193917A6E7373
S1134D607D8E92816F727A88958673707884928D25
S1134D70776F76808E8F7F70747C8792857472795A
S1134D80828E8C7B71767E8B8E8373747B84908908
S1134D907772777F8C8F7E72747B8891867471783A
S1134DA083928C786F75808E907E6F737B8C9483E6
S1134DB0717078889688726E7585968E746C73831C
S1134DC09691786B728094937B6C717D8F96806ED4
S1134DD0707A8B9686706F7886948B756E768292D5
S1134DE08F796F747E8C928070737A8893877371D5
S1134DF07884918C7870767F8E907E70747C8990A4
S1134E008574727983908B7971767F8C8F807174BD
S1134E107B88908775717882908C7A71757F8B907E
S1134E208171737A87918875717681928E796F72A8
S1134E307E92927D6E707C8E96826E6F798B958653
S1134E40726E7785958C756E758192917A6E737D8D
S1134E508F94806E717A8B9685706F7787958A743C
S1134E606E7782928F796F747F8D918070737C8757
S1134E708F8775727A818C8B7D73777D868F86762A
S1134E807478828E8C7C71757D8B908271737A8735
S1134E909187767078828E8E7B71747D8C9282710C
S1134EA07179899487736F7684958D756D73829506
S1134EB090796D727E91957D6D707B8E96836E6F09
S1134EC0788A9887716E7787968C746E7582948FC2
S1134ED0796E747E8E937F6F727B8A9386717179FB
S1134EE085928A777077808D8F7C72757D888F87A5
S1134EF0747379828E8B7C71777D8A908174747BD4
S1134F00858E89787278808C8D7F73757C878F8687
S1134F10777379828C8D7D72757C8A9183737278B4
S1134F2086938A766F7582948F786E727F93937C62
S1134F306D707C9195806E6F7A8C97846F6F788991
S1134F409689726E7684958E766D758191907C6E5D
S1134F50747E8B938271737B869089777178818C50
S1134F608D7D72767D868D86777479808D8C7D7249
S1134F70767C88908374737A848F8B7871777F8D35
S1134F808F7F71747C89918574727984908A797128
S1134F90767F8C917F7173798A9386736F76869707
S1134FA08A736D7485968E756D738193917A6D7322
S1134FB07E90937F6F717B8B968471707887958ACE
S1134FC0736F7683938E786E757F8F917D6F737D0B
S1134FD08A938471727A85918A767078808D8F7CB9
S1134FE071767D89908474747A838E8A7A72777EDE
S1134FF08A8F8173747A869089767178818F8D7C9B
S113500070757E8B8F8273737B85908977727780BE
S11350108E8E7D71747C8C9283717179899387757E
S11350206F7783928D786F757F8F927D6F727B8D92
S113503095836F6F798A9887706E7788968B736D76
S11350407683948F766D75818F917D6E747D8B924E
S11350508371727B869188767178828C8D7D71776D
S11350607D888D8476747B818D8B7B73767E898F2E
S11350708374747A858E89797178808D8C7F737549
S11350807C86908675737682928D7970737E929207
S11350907C6E717C8F95806E707A8C97856F6E783C
S11350A0889689716E7685968E756D758193917AE1
S11350B06D737E8F947F6E727C8C948471717A850B
S11350C0928A757078818F8E7B70767E898F8374D7
S11350D0747B838E8A7973787F898F8173757A86DE
S11350E09087767278818E8E7B70757E8C918171BB
S11350F0737A879187757178828F8D7971757E8DBA
S1135100918071737A8A928573707884938C766FA8
S1135110748093917A6E727D91957E6D707B8F967B
S1135120826E6F7A8A9687706F7885948D756E76A5
S11351308192907A6E747E8E947F6F717B8B93854F
S113514071717A85928B757077818F8F7B6F757D86
S11351508B928272737B859089767278818D8F7D34
S113516070767C8A918373727A84908A777177805F
S11351708D8F7E71757C8A918473727A85918A761B
S11351807177818E8F7D6F747C8C928271717A8736
S1135190938873707684938D776E747F91937B6D0F
S11351A0717D90957F6E707B8C97846F6F788997F3
S11351B08A706E7685978D746C74839491786C7311
S11351C07F91947D6C727C8D94836F717B879388BF
S11351D0747078838F8D7A70767E8B8F8173747BF5
S11351E084908A777277808E8F7D70757C8B9282A3
S11351F072717A86928974707782908F7A6F757DD6
S11352008D92806F717B8A9485727080808080809B
S11352107F807F8080807F807F80807F808080808F
S1135220807F807F807F807F807F807F7F807F8082
S11352307F8080807F807F807F80807F807F807F71
S113524080807F807F807F807F807F80807F807F61
S11352508080807F807F807F807F80807F807F8050
S1135260807F807F807F80807F807F807F807F8041
S1135270807F807F807F807F80807F807F80807F31
S1135280807F807F807F807F80807F807F807F8021
S11352907F80807F8080807F807F8080807F807F10
S11352A0807F807F8080807F80807F807F807F8000
S11352B07F8080808080807F807F807F7F807F80F0
S11352C07F807F80807F807F7F807F80807F807FE2
S11352D0807F80807F807F807F807F807F807F80D1
S11352E07F807F807F7F807F80807F807F807F80C2
S11352F080808080808080807F807F807F807F80AE
S11353007F80807F807F807F807F807F807F807FA1
S1135310807F80807F807F807F807F80807F807F90
S1135320807F80807F807F8080807F80807F807F7F
S1135330807F80807F80807F807F807F807F807F70
S1135340807F807F807F807F807F807F80807F8060
S1135350807F807F80807F807F80807F80807F804F
S1135360807F807F807F807F807F807F807F807F41
S113537080807F80807F807F7F807F807F80807F30
S1135380807F807F807F807F80807F80807F807F20
S113539080807F807F80807F807F80807F80807F0F
S11353A080807F807F807F80807F807F80807F80FF
S11353B0807F807F80807F807F80807F807F807FF0
S11353C0807F807F807F807F807F80807F807F80E0
S11353D07F807F807F807F807F807F807F807F80D1
S11353E07F807F8080807F807F807F80807F8080BF
S11353F07F807F80807F807F80807F807F807F80B0
S11354007F807F807F807F807F807F80807F807FA0
S1135410807F807F807F807F807F807F807F807F90
S1135420807F807F807F80807F807F80807F807F7F
S1135430807F80807F808080807F807F807F7F806E
S11354407F807F80808080807F807F807F807F7F5F
S1135450807F807F80807F807F80807F807F807F4F
S113546080807F807F80807F807F80807F807F803E
S11354707F807F80807F80807F807F8080807F7F2F
S1135480807F807F807F807F807F807F807F807F20
S113549080807F8080807F807F807F807F80807F0E
S11354A080807F807F807F807F807F807F807F80FF
S11354B0807F807F7F807F80807F807F7F807F80F0
S11354C07F808080807F8080808080807F807F80DC
S11354D07F7F80807F807F7F807F807F807F807FD1
S11354E07F807F807F8080807F80807F807F8080BE
S11354F07F8080807F807F80807F80807F807F80AE
S113550080807F807F8080807F807F807F8080809C
S11355107F807F807F807F807F807F807F8080808E
S11355207F807F8080807F807F80807F807F807F7E
S1135530807F807F80807F807F807F807F807F806E
S11355407F807F80807F807F80807F807F80807F5E
S113555080807F80807F807F807F8080808080804B
S11355607F807F807F807F807F807F807F807F803F
S11355707F807F807F7F80808080807F8080807F2D
S1135580807F807F7F807F807F807F80807F807F1F
S113559080807F807F80807F807F8080808080800B
S11355A07F807F80807F807F807F80807F807F80FE
S11355B07F807F80807F807F807F807F80807F80EE
S11355C07F8080807F807F807F807F8080808080DC
S11355D0807F807F807F80807F807F807F807F80CE
S11355E07F807F80807F807F80807F80807F8080BD
S11355F07F80807F807F807F80807F80807F807FAE
S113560080807F807F807F80807F80807F807F809C
S11356107F80807F807F807F80807F807F807F808D
S11356207F807F807F80807F807F807F807F807F7E
S1135630807F7F807F807F807F807F80807F807F6E
S1135640807F807F80807F80807F807F807F807F5D
S1135650807F807F807F807F80807F80807F807F4D
S1135660807F808080807F80808080807F807F803A
S113567080807F807F807F807F807F807F807F802D
S11356807F80807F807F80807F807F807F80807F1D
S1135690807F807F807F807F808080807F807F800C
S11356A0807F807F807F807F807F807F807F8080FD
S11356B07F807F808080807F80808080807F807FEB
S11356C0808080807F807F807F808080807F807FDB
S11356D080807F8080808080807F80807F807F80CA
S11356E07F807F807F80808080807F807F807F80BC
S11356F07F80807F807F807F807F80807F807F80AD
S11357007F80807F807F80807F807F807F807F809C
S11357107F807F807F807F80807F807F80807F808C
S11357207F807F80807F807F807F807F807F7F807D
S11357307F7F807F807F80807F807F80807F807F6D
S1135740807F807F807F807F80807F807F807F805C
S1135750807F807F807F807F80807F807F807F804C
S1135760807F80807F80807F807F80807F80807F3B
S113577080807F807F8080808080808080807F8028
S11357807F807F807F807F807F807F80807F807F1D
S1135790807F807F807F80807F807F80808080800A
S11357A0808080807F807F807F807F807F807F80FB
S11357B07F807F7F807F807F80807F80807F807FED
S11357C0807F807F807F807F80807F807F807F80DC
S11357D0807F807F80807F807F808080807F8080CA
S11357E07F807F807F807F80807F7F807F80807FBD
S11357F080807F807F8080807F807F807F80807FAB
S1135800807F807F807F807F807F807F807F807F9C
S1135810807F807F807F807F80807F807F807F808B
S11358207F807F80807F807F8080807F8080808079
S1135830807F807F80807F80807F807F80807F806A
S11358407F807F807F80807F808080807F807F805A
S11358507F807F807F807F808080807F807F807F4B
S1135860807F8080807F807F80807F807F80808039
S11358707F807F8080807F80807F807F807F807F2B
S1135880807F7F807F807F807F807F807F80807F1C
S1135890807F808080807F808080807F807F807F09
S11358A0807F80807F807F807F807F807F807F80FB
S11358B0807F8080807F807F807F80807F807F80EA
S11358C07F7F807F807F8080807F807F807F8080DB
S11358D07F807F807F80807F807F807F8080807FCB
S11358E080807F807F807F807F807F80807F807FBB
S11358F0807F80807F807F8080807F807F807F80AA
S11359007F80807F80807F807F807F807F807F809A
S11359107F807F807F807F808080807F8080808088
S11359207F807F807F7F807F807F80807F807F807B
S11359307F807F7F808080807F807F807F80807F6A
S1135940807F807F807F8080807F807F807F807F5A
S1135950807F807F807F80807F807F807F807F804A
S11359607F807F807F80807F80807F807F80807F3A
S113597080807F807F807F80807F807F80807F8029
S11359807F807F807F807F807F807F807F80807F1B
S113599080807F807F807F7F807F807F807F807F0B
S11359A0807F807F807F80808080807F807F8080F8
S11359B07F807F807F807F807F807F807F807F7FEC
S11359C0807F807F807F807F807F80807F807F7FDB
S11359D0807F807F807F807F80807F807F807F80CA
S11359E0807F807F80807F807F807F807F80807FBA
S11359F0807F807F807F7F807F807F80807F8080AA
S1135A007F807F80807F807F7F807F80807F807F9A
S1135A1080807F80807F807F8080807F807F807F88
S1135A20807F807F807F807F807F807F807F807F7A
S1135A3080808080807F80808080807F807F807F66
S1135A40807F7F807F807F80807F807F80807F8059
S1135A507F80807F80807F80807F807F807F807F49
S1135A60807F80807F807F807F807F80807F808038
S1135A707F807F807F80807F807F80807F80807F29
S1135A80807F80807F807F80807F80807F80807F18
S1135A90807F80808080807F807F807F807F808007
S1135AA07F8080808080807F807F80807F807F80F7
S1135AB07F807F807F807F80807F80807F807F80E9
S1135AC07F807F807F807F807F8080807F807F80D9
S1135AD07F807F807F80807F808080807F808080C7
S1135AE080808080807F807F807F807F807F807FB8
S1135AF0807F807F807F8080807F807F80807F80A8
S1135B007F807F807F807F807F807F807F807F8099
S1135B10807F80807F807F807F807F80807F807F88
S1135B20808080807F808080807F80807F807F8075
S1135B307F807F807F80807F807F8080807F808067
S1135B407F807F8080808080807F807F807F807F57
S1135B50807F807F80807F807F80807F80807F8047
S1135B607F807F807F8080807F807F807F80807F38
S1135B70807F807F807F807F807F80807F807F8028
S1135B807F807F807F807F807F807F807F807F8019
S1135B907F80807F807F807F807F807F807F828501
S1135BA0858686868786868686868787878787878B
S1135BB0888788888889898989888989898988885A
S1135BC0888989898887888889898888888889894B
S1135BD0898887878889898988888889898A8A8938
S1135BE0898A8B8B8A8989898A8A8A898989898918
S1135BF0898989888888888989888887878888881E
S1135C008887878788888888878889898888888812
S1135C10898988888787888887878786878685850E
S1135C20858585858485858585868585858585861F
S1135C30858687878584838385868482818285851A
S1135C4084827F8085868684808084868583818023
S1135C50828483828180818180818181808080802F
S1135C60818180807F7F818281807F7E7F807F7D34
S1135C707E8182807E7C7C818382807D7C7F81802A
S1135C807F7D7C7E7F7E7E7D7C7E7E7E7E7D7D7D37
S1135C907D7C7E7E7E7E7D7C7D7E7F7F7E7C7C7D2A
S1135CA07D7E7D7C7D7E7F7E7C7B7C7E807F7D7C1B
S1135CB07C7E7F7E7D7C7D7E7F7E7D7D7D7D7E7E08
S1135CC07E7D7D7D7D7D7D7E7E7D7D7D7D7E7F80F7
S1135CD07F7E7D7D7E7E7D7D8080807F7C7C7F81DC
S1135CE080807E7D7F807F7F7E7E7F807F7F7E7EC3
