:100000000C9434000C943E000C943E000C943E0082
:100010000C943E000C943E000C943E000C943E0068
:100020000C943E000C943E000C943E000C943E0058
:100030000C943E000C943E000C943E000C943E0048
:100040000C943E000C943E000C943E000C943E0038
:100050000C943E000C943E000C943E000C943E0028
:100060000C943E000C943E0011241FBECFEFD8E04C
:10007000DEBFCDBF0E9440000C9495000C940000A0
:1000800081E090E00E94510080E00E94760080E0D4
:100090000E9488008823D9F381E090E00E945C00F0
:1000A000F6CF9AB121E030E002C0220F331F8A95CB
:1000B000E2F7292B2AB908954BB121E030E0B901CC
:1000C00002C0660F771F8A95E2F7CB01462B4BB92A
:1000D0007FEF23ED30E3715020403040E1F700C066
:1000E00000009BB1809589238BB9089544B121E02C
:1000F00030E0B90102C0660F771F8A95E2F7CB01A5
:10010000962F9095492344B995B1892B85B90895C7
:1001100023B130E002C0359527958A95E2F720FD9E
:0E01200002C081E0089580E00895F894FFCFBA
:00000001FF
