:100000000C9434000C9451000C9451000C94510049
:100010000C9451000C9451000C9451000C9451001C
:100020000C9451000C9451000C9451000C9451000C
:100030000C9451000C9451000C9451000C945100FC
:100040000C9451000C9451000C9451000C945100EC
:100050000C9451000C9485000C9451000C945100A8
:100060000C9451000C94510011241FBECFEFD8E026
:10007000DEBFCDBF11E0A0E0B1E0E2EFF4E002C0EE
:1000800005900D92A430B107D9F721E0A4E0B1E0CA
:1000900001C01D92A830B207E1F70E946A000C94DB
:1000A00077020C940000ECE7F0E0808185648083A7
:1000B000EAE7F0E080818F688083EEE7F0E08081FE
:1000C0008062808378940895EAE7F0E0808180641C
:1000D000808308958AB181608AB90E9453000E948A
:1000E0006400609104017091050180910601909176
:1000F000070120E030E046E953E40E94E101882353
:1001000084F38BB181608BB9ECCF1F920F920FB645
:100110000F921124CF92DF92EF92FF922F933F9391
:100120004F935F936F937F938F939F93AF93BF93FF
:10013000EF93FF93609178007091790080E090E0F8
:100140000E9453016B017C016091020170910301D7
:10015000072E000C880B990B0E945501A7019601F0
:100160000E94E6016B017C01609100017091010128
:10017000072E000C880B990B0E9455019B01AC01C6
:10018000C701B6010E94E10060930401709305016C
:100190008093060190930701FF91EF91BF91AF917A
:1001A0009F918F917F916F915F914F913F912F918F
:1001B000FF90EF90DF90CF900F900FBE0F901F90A9
:1001C00018950E94F5000C94A7010E94A00158F018
:1001D0000E94990140F029F45F3F29F00C949001AE
:1001E00051110C94DB010C9496010E94B80168F344
:1001F0009923B1F3552391F3951B550BBB27AA27E0
:1002000062177307840738F09F5F5F4F220F331F19
:10021000441FAA1FA9F335D00E2E3AF0E0E832D0E1
:1002200091505040E695001CCAF72BD0FE2F29D0E4
:10023000660F771F881FBB1F261737074807AB07B6
:10024000B0E809F0BB0B802DBF01FF2793585F4F2B
:100250003AF09E3F510578F00C9490010C94DB012C
:100260005F3FE4F3983ED4F3869577956795B7950D
:10027000F7959F5FC9F7880F911D9695879597F918
:100280000895E1E0660F771F881FBB1F6217730791
:100290008407BA0720F0621B730B840BBA0BEE1FA6
:1002A00088F7E0950895E89409C097FB3EF490958F
:1002B0008095709561957F4F8F4F9F4F9923A9F03F
:1002C000F92F96E9BB279395F695879577956795CE
:1002D000B795F111F8CFFAF4BB0F11F460FF1BC012
:1002E0006F5F7F4F8F4F9F4F16C0882311F096E9A5
:1002F00011C0772321F09EE8872F762F05C0662353
:1003000071F096E8862F70E060E02AF09A95660F0B
:10031000771F881FDAF7880F9695879597F90895C4
:1003200097F99F6780E870E060E008959FEF80ECA8
:10033000089500240A94161617061806090608954B
:1003400000240A9412161306140605060895092EB1
:100350000394000C11F4882352F0BB0F40F4BF2B20
:1003600011F460FF04C06F5F7F4F8F4F9F4F089560
:1003700057FD9058440F551F59F05F3F71F0479556
:10038000880F97FB991F61F09F3F79F0879508953B
:10039000121613061406551FF2CF4695F1DF08C05A
:1003A000161617061806991FF1CF86957105610577
:1003B00008940895E894BB2766277727CB0197F91F
:1003C00008950E94530208F48FEF08950E94F901E6
:1003D0000C94A7010E94990138F00E94A00120F01E
:1003E000952311F00C9490010C94960111240C9417
:1003F000DB010E94B80170F3959FC1F3950F50E0A7
:10040000551F629FF001729FBB27F00DB11D639FC6
:10041000AA27F00DB11DAA1F649F6627B00DA11D6C
:10042000661F829F2227B00DA11D621F739FB00D12
:10043000A11D621F839FA00D611D221F749F332782
:10044000A00D611D231F849F600D211D822F762F1B
:100450006A2F11249F5750409AF0F1F088234AF0F8
:10046000EE0FFF1FBB1F661F771F881F9150504064
:10047000A9F79E3F510580F00C9490010C94DB018C
:100480005F3FE4F3983ED4F3869577956795B795EB
:10049000F795E7959F5FC1F7FE2B880F911D969505
:1004A000879597F90895990F0008550FAA0BE0E872
:1004B000FEEF16161706E807F907C0F01216130626
:1004C000E407F50798F0621B730B840B950B39F466
:1004D0000A2661F0232B242B252B21F408950A26CC
:1004E00009F4A140A6958FEF811D811D0895F89410
:0204F000FFCF3C
:0404F20005000004FD
:00000001FF
